{
  "address": "0x2749f4DadD2137F03548c8Aca7B9BD72f08E9af8",
  "abi": [
    {
      "inputs": [
        {
          "internalType": "uint256",
          "name": "_submissionInterval",
          "type": "uint256"
        },
        {
          "internalType": "uint256",
          "name": "_l2BlockTime",
          "type": "uint256"
        },
        {
          "internalType": "uint256",
          "name": "_startingBlockNumber",
          "type": "uint256"
        },
        {
          "internalType": "uint256",
          "name": "_startingTimestamp",
          "type": "uint256"
        },
        {
          "internalType": "address",
          "name": "_proposer",
          "type": "address"
        },
        {
          "internalType": "address",
          "name": "_challenger",
          "type": "address"
        },
        {
          "internalType": "uint256",
          "name": "_finalizationPeriodSeconds",
          "type": "uint256"
        }
      ],
      "stateMutability": "nonpayable",
      "type": "constructor"
    },
    {
      "anonymous": false,
      "inputs": [
        {
          "indexed": false,
          "internalType": "uint8",
          "name": "version",
          "type": "uint8"
        }
      ],
      "name": "Initialized",
      "type": "event"
    },
    {
      "anonymous": false,
      "inputs": [
        {
          "indexed": true,
          "internalType": "bytes32",
          "name": "outputRoot",
          "type": "bytes32"
        },
        {
          "indexed": true,
          "internalType": "uint256",
          "name": "l2OutputIndex",
          "type": "uint256"
        },
        {
          "indexed": true,
          "internalType": "uint256",
          "name": "l2BlockNumber",
          "type": "uint256"
        },
        {
          "indexed": false,
          "internalType": "uint256",
          "name": "l1Timestamp",
          "type": "uint256"
        }
      ],
      "name": "OutputProposed",
      "type": "event"
    },
    {
      "anonymous": false,
      "inputs": [
        {
          "indexed": true,
          "internalType": "uint256",
          "name": "prevNextOutputIndex",
          "type": "uint256"
        },
        {
          "indexed": true,
          "internalType": "uint256",
          "name": "newNextOutputIndex",
          "type": "uint256"
        }
      ],
      "name": "OutputsDeleted",
      "type": "event"
    },
    {
      "inputs": [],
      "name": "CHALLENGER",
      "outputs": [
        {
          "internalType": "address",
          "name": "",
          "type": "address"
        }
      ],
      "stateMutability": "view",
      "type": "function"
    },
    {
      "inputs": [],
      "name": "FINALIZATION_PERIOD_SECONDS",
      "outputs": [
        {
          "internalType": "uint256",
          "name": "",
          "type": "uint256"
        }
      ],
      "stateMutability": "view",
      "type": "function"
    },
    {
      "inputs": [],
      "name": "L2_BLOCK_TIME",
      "outputs": [
        {
          "internalType": "uint256",
          "name": "",
          "type": "uint256"
        }
      ],
      "stateMutability": "view",
      "type": "function"
    },
    {
      "inputs": [],
      "name": "PROPOSER",
      "outputs": [
        {
          "internalType": "address",
          "name": "",
          "type": "address"
        }
      ],
      "stateMutability": "view",
      "type": "function"
    },
    {
      "inputs": [],
      "name": "SUBMISSION_INTERVAL",
      "outputs": [
        {
          "internalType": "uint256",
          "name": "",
          "type": "uint256"
        }
      ],
      "stateMutability": "view",
      "type": "function"
    },
    {
      "inputs": [
        {
          "internalType": "uint256",
          "name": "_l2BlockNumber",
          "type": "uint256"
        }
      ],
      "name": "computeL2Timestamp",
      "outputs": [
        {
          "internalType": "uint256",
          "name": "",
          "type": "uint256"
        }
      ],
      "stateMutability": "view",
      "type": "function"
    },
    {
      "inputs": [
        {
          "internalType": "uint256",
          "name": "_l2OutputIndex",
          "type": "uint256"
        }
      ],
      "name": "deleteL2Outputs",
      "outputs": [],
      "stateMutability": "nonpayable",
      "type": "function"
    },
    {
      "inputs": [
        {
          "internalType": "uint256",
          "name": "_l2OutputIndex",
          "type": "uint256"
        }
      ],
      "name": "getL2Output",
      "outputs": [
        {
          "components": [
            {
              "internalType": "bytes32",
              "name": "outputRoot",
              "type": "bytes32"
            },
            {
              "internalType": "uint128",
              "name": "timestamp",
              "type": "uint128"
            },
            {
              "internalType": "uint128",
              "name": "l2BlockNumber",
              "type": "uint128"
            }
          ],
          "internalType": "struct Types.OutputProposal",
          "name": "",
          "type": "tuple"
        }
      ],
      "stateMutability": "view",
      "type": "function"
    },
    {
      "inputs": [
        {
          "internalType": "uint256",
          "name": "_l2BlockNumber",
          "type": "uint256"
        }
      ],
      "name": "getL2OutputAfter",
      "outputs": [
        {
          "components": [
            {
              "internalType": "bytes32",
              "name": "outputRoot",
              "type": "bytes32"
            },
            {
              "internalType": "uint128",
              "name": "timestamp",
              "type": "uint128"
            },
            {
              "internalType": "uint128",
              "name": "l2BlockNumber",
              "type": "uint128"
            }
          ],
          "internalType": "struct Types.OutputProposal",
          "name": "",
          "type": "tuple"
        }
      ],
      "stateMutability": "view",
      "type": "function"
    },
    {
      "inputs": [
        {
          "internalType": "uint256",
          "name": "_l2BlockNumber",
          "type": "uint256"
        }
      ],
      "name": "getL2OutputIndexAfter",
      "outputs": [
        {
          "internalType": "uint256",
          "name": "",
          "type": "uint256"
        }
      ],
      "stateMutability": "view",
      "type": "function"
    },
    {
      "inputs": [
        {
          "internalType": "uint256",
          "name": "_startingBlockNumber",
          "type": "uint256"
        },
        {
          "internalType": "uint256",
          "name": "_startingTimestamp",
          "type": "uint256"
        }
      ],
      "name": "initialize",
      "outputs": [],
      "stateMutability": "nonpayable",
      "type": "function"
    },
    {
      "inputs": [],
      "name": "latestBlockNumber",
      "outputs": [
        {
          "internalType": "uint256",
          "name": "",
          "type": "uint256"
        }
      ],
      "stateMutability": "view",
      "type": "function"
    },
    {
      "inputs": [],
      "name": "latestOutputIndex",
      "outputs": [
        {
          "internalType": "uint256",
          "name": "",
          "type": "uint256"
        }
      ],
      "stateMutability": "view",
      "type": "function"
    },
    {
      "inputs": [],
      "name": "nextBlockNumber",
      "outputs": [
        {
          "internalType": "uint256",
          "name": "",
          "type": "uint256"
        }
      ],
      "stateMutability": "view",
      "type": "function"
    },
    {
      "inputs": [],
      "name": "nextOutputIndex",
      "outputs": [
        {
          "internalType": "uint256",
          "name": "",
          "type": "uint256"
        }
      ],
      "stateMutability": "view",
      "type": "function"
    },
    {
      "inputs": [
        {
          "internalType": "bytes32",
          "name": "_outputRoot",
          "type": "bytes32"
        },
        {
          "internalType": "uint256",
          "name": "_l2BlockNumber",
          "type": "uint256"
        },
        {
          "internalType": "bytes32",
          "name": "_l1BlockHash",
          "type": "bytes32"
        },
        {
          "internalType": "uint256",
          "name": "_l1BlockNumber",
          "type": "uint256"
        }
      ],
      "name": "proposeL2Output",
      "outputs": [],
      "stateMutability": "payable",
      "type": "function"
    },
    {
      "inputs": [],
      "name": "startingBlockNumber",
      "outputs": [
        {
          "internalType": "uint256",
          "name": "",
          "type": "uint256"
        }
      ],
      "stateMutability": "view",
      "type": "function"
    },
    {
      "inputs": [],
      "name": "startingTimestamp",
      "outputs": [
        {
          "internalType": "uint256",
          "name": "",
          "type": "uint256"
        }
      ],
      "stateMutability": "view",
      "type": "function"
    },
    {
      "inputs": [],
      "name": "version",
      "outputs": [
        {
          "internalType": "string",
          "name": "",
          "type": "string"
        }
      ],
      "stateMutability": "view",
      "type": "function"
    }
  ],
  "transactionHash": "0x4182cd1627360c90e4b74c0e389cc1cef44f1568b3c2959a88ddef7edfdbedc8",
  "args": [
    20,
    1,
    0,
    0,
    "0x8566a8D3d170b3C9F4fC8502c7eaa17dC9A81Bec",
    "0x1cfbEDe877B3DfDA8d44256601333CA85b79c282",
    2
  ],
  "numDeployments": 1,
  "solcInputHash": "2ed7f8b4657580bbc7e9517cb6460155",
  "bytecode": "0x6101806040523480156200001257600080fd5b5060405162001a5438038062001a54833981016040819052620000359162000364565b6001608052600260a052600060c05285620000bd5760405162461bcd60e51b815260206004820152603460248201527f4c324f75747075744f7261636c653a204c3220626c6f636b2074696d65206d7560448201527f73742062652067726561746572207468616e203000000000000000000000000060648201526084015b60405180910390fd5b858711620001435760405162461bcd60e51b815260206004820152604660248201527f4c324f75747075744f7261636c653a207375626d697373696f6e20696e74657260448201527f76616c206d7573742062652067726561746572207468616e204c3220626c6f636064820152656b2074696d6560d01b608482015260a401620000b4565b60e08790526101008690526001600160a01b038084166101405282166101205261016081905262000175858562000182565b50505050505050620003cc565b600054610100900460ff1615808015620001a35750600054600160ff909116105b80620001d35750620001c0306200033860201b620011ad1760201c565b158015620001d3575060005460ff166001145b620002385760405162461bcd60e51b815260206004820152602e60248201527f496e697469616c697a61626c653a20636f6e747261637420697320616c72656160448201526d191e481a5b9a5d1a585b1a5e995960921b6064820152608401620000b4565b6000805460ff1916600117905580156200025c576000805461ff0019166101001790555b42821115620002e25760405162461bcd60e51b8152602060048201526044602482018190527f4c324f75747075744f7261636c653a207374617274696e67204c322074696d65908201527f7374616d70206d757374206265206c657373207468616e2063757272656e742060648201526374696d6560e01b608482015260a401620000b4565b60028290556001839055801562000333576000805461ff0019169055604051600181527f7f26b83ff96e1f2b6a682f133852f6798a09c465da95921460cefb38474024989060200160405180910390a15b505050565b6001600160a01b03163b151590565b80516001600160a01b03811681146200035f57600080fd5b919050565b600080600080600080600060e0888a0312156200038057600080fd5b87519650602088015195506040880151945060608801519350620003a76080890162000347565b9250620003b760a0890162000347565b915060c0880151905092959891949750929550565b60805160a05160c05160e051610100516101205161014051610160516115ff620004556000396000818161041501526108f601526000818161036c0152610a66015260008181610236015261079001526000818161015a0152610ee10152600081816101b60152610f2f01526000610503015260006104da015260006104b101526115ff6000f3fe6080604052600436106101435760003560e01c806388786272116100c0578063cf8e5cf011610074578063dcec334811610059578063dcec3348146103ce578063e4a30116146103e3578063f4daa2911461040357600080fd5b8063cf8e5cf01461038e578063d1de856c146103ae57600080fd5b80639aaab648116100a55780639aaab648146102eb578063a25ae557146102fe578063bffa7f0f1461035a57600080fd5b806388786272146102b357806389c44cbb146102c957600080fd5b806369f16eec116101175780636b4d98dd116100fc5780636b4d98dd1461022457806370872aa51461027d5780637f0064201461029357600080fd5b806369f16eec146101fa5780636abcf5631461020f57600080fd5b80622134cc146101485780634599c7881461018f578063529933df146101a457806354fd4d50146101d8575b600080fd5b34801561015457600080fd5b5061017c7f000000000000000000000000000000000000000000000000000000000000000081565b6040519081526020015b60405180910390f35b34801561019b57600080fd5b5061017c610437565b3480156101b057600080fd5b5061017c7f000000000000000000000000000000000000000000000000000000000000000081565b3480156101e457600080fd5b506101ed6104aa565b6040516101869190611336565b34801561020657600080fd5b5061017c61054d565b34801561021b57600080fd5b5060035461017c565b34801561023057600080fd5b506102587f000000000000000000000000000000000000000000000000000000000000000081565b60405173ffffffffffffffffffffffffffffffffffffffff9091168152602001610186565b34801561028957600080fd5b5061017c60015481565b34801561029f57600080fd5b5061017c6102ae366004611387565b61055f565b3480156102bf57600080fd5b5061017c60025481565b3480156102d557600080fd5b506102e96102e4366004611387565b610778565b005b6102e96102f93660046113a0565b610a4e565b34801561030a57600080fd5b5061031e610319366004611387565b610e11565b60408051825181526020808401516fffffffffffffffffffffffffffffffff908116918301919091529282015190921690820152606001610186565b34801561036657600080fd5b506102587f000000000000000000000000000000000000000000000000000000000000000081565b34801561039a57600080fd5b5061031e6103a9366004611387565b610ea5565b3480156103ba57600080fd5b5061017c6103c9366004611387565b610edd565b3480156103da57600080fd5b5061017c610f2b565b3480156103ef57600080fd5b506102e96103fe3660046113d2565b610f60565b34801561040f57600080fd5b5061017c7f000000000000000000000000000000000000000000000000000000000000000081565b600354600090156104a1576003805461045290600190611423565b815481106104625761046261143a565b600091825260209091206002909102016001015470010000000000000000000000000000000090046fffffffffffffffffffffffffffffffff16919050565b6001545b905090565b60606104d57f00000000000000000000000000000000000000000000000000000000000000006111c9565b6104fe7f00000000000000000000000000000000000000000000000000000000000000006111c9565b6105277f00000000000000000000000000000000000000000000000000000000000000006111c9565b60405160200161053993929190611469565b604051602081830303815290604052905090565b6003546000906104a590600190611423565b6000610569610437565b821115610623576040517f08c379a000000000000000000000000000000000000000000000000000000000815260206004820152604860248201527f4c324f75747075744f7261636c653a2063616e6e6f7420676574206f7574707560448201527f7420666f72206120626c6f636b207468617420686173206e6f74206265656e2060648201527f70726f706f736564000000000000000000000000000000000000000000000000608482015260a4015b60405180910390fd5b6003546106d8576040517f08c379a000000000000000000000000000000000000000000000000000000000815260206004820152604660248201527f4c324f75747075744f7261636c653a2063616e6e6f7420676574206f7574707560448201527f74206173206e6f206f7574707574732068617665206265656e2070726f706f7360648201527f6564207965740000000000000000000000000000000000000000000000000000608482015260a40161061a565b6003546000905b8082101561077157600060026106f583856114df565b6106ff9190611526565b905084600382815481106107155761071561143a565b600091825260209091206002909102016001015470010000000000000000000000000000000090046fffffffffffffffffffffffffffffffff161015610767576107608160016114df565b925061076b565b8091505b506106df565b5092915050565b3373ffffffffffffffffffffffffffffffffffffffff7f0000000000000000000000000000000000000000000000000000000000000000161461083d576040517f08c379a000000000000000000000000000000000000000000000000000000000815260206004820152603e60248201527f4c324f75747075744f7261636c653a206f6e6c7920746865206368616c6c656e60448201527f67657220616464726573732063616e2064656c657465206f7574707574730000606482015260840161061a565b60035481106108f4576040517f08c379a000000000000000000000000000000000000000000000000000000000815260206004820152604360248201527f4c324f75747075744f7261636c653a2063616e6e6f742064656c657465206f7560448201527f747075747320616674657220746865206c6174657374206f757470757420696e60648201527f6465780000000000000000000000000000000000000000000000000000000000608482015260a40161061a565b7f0000000000000000000000000000000000000000000000000000000000000000600382815481106109285761092861143a565b6000918252602090912060016002909202010154610958906fffffffffffffffffffffffffffffffff1642611423565b10610a0b576040517f08c379a000000000000000000000000000000000000000000000000000000000815260206004820152604660248201527f4c324f75747075744f7261636c653a2063616e6e6f742064656c657465206f7560448201527f74707574732074686174206861766520616c7265616479206265656e2066696e60648201527f616c697a65640000000000000000000000000000000000000000000000000000608482015260a40161061a565b6000610a1660035490565b90508160035581817f4ee37ac2c786ec85e87592d3c5c8a1dd66f8496dda3f125d9ea8ca5f657629b660405160405180910390a35050565b3373ffffffffffffffffffffffffffffffffffffffff7f00000000000000000000000000000000000000000000000000000000000000001614610b39576040517f08c379a000000000000000000000000000000000000000000000000000000000815260206004820152604160248201527f4c324f75747075744f7261636c653a206f6e6c79207468652070726f706f736560448201527f7220616464726573732063616e2070726f706f7365206e6577206f757470757460648201527f7300000000000000000000000000000000000000000000000000000000000000608482015260a40161061a565b610b41610f2b565b8314610bf5576040517f08c379a000000000000000000000000000000000000000000000000000000000815260206004820152604860248201527f4c324f75747075744f7261636c653a20626c6f636b206e756d626572206d757360448201527f7420626520657175616c20746f206e65787420657870656374656420626c6f6360648201527f6b206e756d626572000000000000000000000000000000000000000000000000608482015260a40161061a565b42610bff84610edd565b10610c8c576040517f08c379a000000000000000000000000000000000000000000000000000000000815260206004820152603660248201527f4c324f75747075744f7261636c653a2063616e6e6f742070726f706f7365204c60448201527f32206f757470757420696e207468652066757475726500000000000000000000606482015260840161061a565b83610d19576040517f08c379a000000000000000000000000000000000000000000000000000000000815260206004820152603a60248201527f4c324f75747075744f7261636c653a204c32206f75747075742070726f706f7360448201527f616c2063616e6e6f7420626520746865207a65726f2068617368000000000000606482015260840161061a565b82610d2360035490565b857fa7aaf2512769da4e444e3de247be2564225c2e7a8f74cfe528e46e17d24868e242604051610d5591815260200190565b60405180910390a45050604080516060810182529283526fffffffffffffffffffffffffffffffff4281166020850190815292811691840191825260038054600181018255600091909152935160029094027fc2575a0e9e593c00f959f8c92f12db2869c3395a3b0502d05e2516446f71f85b810194909455915190518216700100000000000000000000000000000000029116177fc2575a0e9e593c00f959f8c92f12db2869c3395a3b0502d05e2516446f71f85c90910155565b604080516060810182526000808252602082018190529181019190915260038281548110610e4157610e4161143a565b600091825260209182902060408051606081018252600290930290910180548352600101546fffffffffffffffffffffffffffffffff8082169484019490945270010000000000000000000000000000000090049092169181019190915292915050565b60408051606081018252600080825260208201819052918101919091526003610ecd8361055f565b81548110610e4157610e4161143a565b60007f000000000000000000000000000000000000000000000000000000000000000060015483610f0e9190611423565b610f18919061153a565b600254610f2591906114df565b92915050565b60007f0000000000000000000000000000000000000000000000000000000000000000610f56610437565b6104a591906114df565b600054610100900460ff1615808015610f805750600054600160ff909116105b80610f9a5750303b158015610f9a575060005460ff166001145b611026576040517f08c379a000000000000000000000000000000000000000000000000000000000815260206004820152602e60248201527f496e697469616c697a61626c653a20636f6e747261637420697320616c72656160448201527f647920696e697469616c697a6564000000000000000000000000000000000000606482015260840161061a565b600080547fffffffffffffffffffffffffffffffffffffffffffffffffffffffffffffff00166001179055801561108457600080547fffffffffffffffffffffffffffffffffffffffffffffffffffffffffffff00ff166101001790555b4282111561113b576040517f08c379a0000000000000000000000000000000000000000000000000000000008152602060048201526044602482018190527f4c324f75747075744f7261636c653a207374617274696e67204c322074696d65908201527f7374616d70206d757374206265206c657373207468616e2063757272656e742060648201527f74696d6500000000000000000000000000000000000000000000000000000000608482015260a40161061a565b6002829055600183905580156111a857600080547fffffffffffffffffffffffffffffffffffffffffffffffffffffffffffff00ff169055604051600181527f7f26b83ff96e1f2b6a682f133852f6798a09c465da95921460cefb38474024989060200160405180910390a15b505050565b73ffffffffffffffffffffffffffffffffffffffff163b151590565b60608160000361120c57505060408051808201909152600181527f3000000000000000000000000000000000000000000000000000000000000000602082015290565b8160005b8115611236578061122081611577565b915061122f9050600a83611526565b9150611210565b60008167ffffffffffffffff811115611251576112516115af565b6040519080825280601f01601f19166020018201604052801561127b576020820181803683370190505b5090505b84156112fe57611290600183611423565b915061129d600a866115de565b6112a89060306114df565b60f81b8183815181106112bd576112bd61143a565b60200101907effffffffffffffffffffffffffffffffffffffffffffffffffffffffffffff1916908160001a9053506112f7600a86611526565b945061127f565b949350505050565b60005b83811015611321578181015183820152602001611309565b83811115611330576000848401525b50505050565b6020815260008251806020840152611355816040850160208701611306565b601f017fffffffffffffffffffffffffffffffffffffffffffffffffffffffffffffffe0169190910160400192915050565b60006020828403121561139957600080fd5b5035919050565b600080600080608085870312156113b657600080fd5b5050823594602084013594506040840135936060013592509050565b600080604083850312156113e557600080fd5b50508035926020909101359150565b7f4e487b7100000000000000000000000000000000000000000000000000000000600052601160045260246000fd5b600082821015611435576114356113f4565b500390565b7f4e487b7100000000000000000000000000000000000000000000000000000000600052603260045260246000fd5b6000845161147b818460208901611306565b80830190507f2e0000000000000000000000000000000000000000000000000000000000000080825285516114b7816001850160208a01611306565b600192019182015283516114d2816002840160208801611306565b0160020195945050505050565b600082198211156114f2576114f26113f4565b500190565b7f4e487b7100000000000000000000000000000000000000000000000000000000600052601260045260246000fd5b600082611535576115356114f7565b500490565b6000817fffffffffffffffffffffffffffffffffffffffffffffffffffffffffffffffff0483118215151615611572576115726113f4565b500290565b60007fffffffffffffffffffffffffffffffffffffffffffffffffffffffffffffffff82036115a8576115a86113f4565b5060010190565b7f4e487b7100000000000000000000000000000000000000000000000000000000600052604160045260246000fd5b6000826115ed576115ed6114f7565b50069056fea164736f6c634300080f000a",
  "devdoc": {
    "version": 1,
    "kind": "dev",
    "methods": {
      "computeL2Timestamp(uint256)": {
        "params": {
          "_l2BlockNumber": "The L2 block number of the target block."
        },
        "returns": {
          "_0": "L2 timestamp of the given block."
        }
      },
      "constructor": {
        "params": {
          "_challenger": "The address of the challenger.",
          "_l2BlockTime": "The time per L2 block, in seconds.",
          "_proposer": "The address of the proposer.",
          "_startingBlockNumber": "The number of the first L2 block.",
          "_startingTimestamp": "The timestamp of the first L2 block.",
          "_submissionInterval": "Interval in blocks at which checkpoints must be submitted."
        }
      },
      "deleteL2Outputs(uint256)": {
        "params": {
          "_l2OutputIndex": "Index of the first L2 output to be deleted. All outputs after this                       output will also be deleted."
        }
      },
      "getL2Output(uint256)": {
        "params": {
          "_l2OutputIndex": "Index of the output to return."
        },
        "returns": {
          "_0": "The output at the given index."
        }
      },
      "getL2OutputAfter(uint256)": {
        "params": {
          "_l2BlockNumber": "L2 block number to find a checkpoint for."
        },
        "returns": {
          "_0": "First checkpoint that commits to the given L2 block number."
        }
      },
      "getL2OutputIndexAfter(uint256)": {
        "params": {
          "_l2BlockNumber": "L2 block number to find a checkpoint for."
        },
        "returns": {
          "_0": "Index of the first checkpoint that commits to the given L2 block number."
        }
      },
      "initialize(uint256,uint256)": {
        "params": {
          "_startingBlockNumber": "Block number for the first recoded L2 block.",
          "_startingTimestamp": "Timestamp for the first recoded L2 block."
        }
      },
      "latestBlockNumber()": {
        "returns": {
          "_0": "Latest submitted L2 block number."
        }
      },
      "latestOutputIndex()": {
        "returns": {
          "_0": "The number of outputs that have been proposed."
        }
      },
      "nextBlockNumber()": {
        "returns": {
          "_0": "Next L2 block number."
        }
      },
      "nextOutputIndex()": {
        "returns": {
          "_0": "The index of the next output to be proposed."
        }
      },
      "proposeL2Output(bytes32,uint256,bytes32,uint256)": {
        "params": {
          "_l1BlockHash": "A block hash which must be included in the current chain.",
          "_l1BlockNumber": "The block number with the specified block hash.",
          "_l2BlockNumber": "The L2 block number that resulted in _outputRoot.",
          "_outputRoot": "The L2 output of the checkpoint block."
        }
      },
      "version()": {
        "returns": {
          "_0": "Semver contract version as a string."
        }
      }
    },
    "events": {
      "OutputProposed(bytes32,uint256,uint256,uint256)": {
        "params": {
          "l1Timestamp": "The L1 timestamp when proposed.",
          "l2BlockNumber": "The L2 block number of the output root.",
          "l2OutputIndex": "The index of the output in the l2Outputs array.",
          "outputRoot": "The output root."
        }
      },
      "OutputsDeleted(uint256,uint256)": {
        "params": {
          "newNextOutputIndex": "Next L2 output index after the deletion.",
          "prevNextOutputIndex": "Next L2 output index before the deletion."
        }
      }
    }
  },
  "userdoc": {
    "version": 1,
    "kind": "user",
    "methods": {
      "CHALLENGER()": {
        "notice": "The address of the challenger. Can be updated via upgrade."
      },
      "L2_BLOCK_TIME()": {
        "notice": "The time between L2 blocks in seconds. Once set, this value MUST NOT be modified."
      },
      "PROPOSER()": {
        "notice": "The address of the proposer. Can be updated via upgrade."
      },
      "SUBMISSION_INTERVAL()": {
        "notice": "The interval in L2 blocks at which checkpoints must be submitted. Although this is         immutable, it can safely be modified by upgrading the implementation contract."
      },
      "computeL2Timestamp(uint256)": {
        "notice": "Returns the L2 timestamp corresponding to a given L2 block number."
      },
      "deleteL2Outputs(uint256)": {
        "notice": "Deletes all output proposals after and including the proposal that corresponds to         the given output index. Only the challenger address can delete outputs."
      },
      "getL2Output(uint256)": {
        "notice": "Returns an output by index. Exists because Solidity's array access will return a         tuple instead of a struct."
      },
      "getL2OutputAfter(uint256)": {
        "notice": "Returns the L2 output proposal that checkpoints a given L2 block number. Uses a         binary search to find the first output greater than or equal to the given block."
      },
      "getL2OutputIndexAfter(uint256)": {
        "notice": "Returns the index of the L2 output that checkpoints a given L2 block number. Uses a         binary search to find the first output greater than or equal to the given block."
      },
      "initialize(uint256,uint256)": {
        "notice": "Initializer."
      },
      "latestBlockNumber()": {
        "notice": "Returns the block number of the latest submitted L2 output proposal. If no proposals         been submitted yet then this function will return the starting block number."
      },
      "latestOutputIndex()": {
        "notice": "Returns the number of outputs that have been proposed. Will revert if no outputs         have been proposed yet."
      },
      "nextBlockNumber()": {
        "notice": "Computes the block number of the next L2 block that needs to be checkpointed."
      },
      "nextOutputIndex()": {
        "notice": "Returns the index of the next output to be proposed."
      },
      "proposeL2Output(bytes32,uint256,bytes32,uint256)": {
        "notice": "Accepts an outputRoot and the timestamp of the corresponding L2 block. The timestamp         must be equal to the current value returned by `nextTimestamp()` in order to be         accepted. This function may only be called by the Proposer."
      },
      "startingBlockNumber()": {
        "notice": "The number of the first L2 block recorded in this contract."
      },
      "startingTimestamp()": {
        "notice": "The timestamp of the first L2 block recorded in this contract."
      },
      "version()": {
        "notice": "Returns the full semver contract version."
      }
    },
    "events": {
      "OutputProposed(bytes32,uint256,uint256,uint256)": {
        "notice": "Emitted when an output is proposed."
      },
      "OutputsDeleted(uint256,uint256)": {
        "notice": "Emitted when outputs are deleted."
      }
    },
    "notice": "The L2OutputOracle contains an array of L2 state outputs, where each output is a         commitment to the state of the L2 chain. Other contracts like the OptimismPortal use         these outputs to verify information about the state of L2."
  },
  "storageLayout": {
    "storage": [
      {
        "astId": 42160,
        "contract": "contracts/L1/L2OutputOracle.sol:L2OutputOracle",
        "label": "_initialized",
        "offset": 0,
        "slot": "0",
        "type": "t_uint8"
      },
      {
        "astId": 42163,
        "contract": "contracts/L1/L2OutputOracle.sol:L2OutputOracle",
        "label": "_initializing",
        "offset": 1,
        "slot": "0",
        "type": "t_bool"
      },
      {
        "astId": 800,
        "contract": "contracts/L1/L2OutputOracle.sol:L2OutputOracle",
        "label": "startingBlockNumber",
        "offset": 0,
        "slot": "1",
        "type": "t_uint256"
      },
      {
        "astId": 803,
        "contract": "contracts/L1/L2OutputOracle.sol:L2OutputOracle",
        "label": "startingTimestamp",
        "offset": 0,
        "slot": "2",
        "type": "t_uint256"
      },
      {
        "astId": 808,
        "contract": "contracts/L1/L2OutputOracle.sol:L2OutputOracle",
        "label": "l2Outputs",
        "offset": 0,
        "slot": "3",
        "type": "t_array(t_struct(OutputProposal)7275_storage)dyn_storage"
      }
    ],
    "types": {
      "t_array(t_struct(OutputProposal)7275_storage)dyn_storage": {
        "encoding": "dynamic_array",
        "label": "struct Types.OutputProposal[]",
        "numberOfBytes": "32",
        "base": "t_struct(OutputProposal)7275_storage"
      },
      "t_bool": {
        "encoding": "inplace",
        "label": "bool",
        "numberOfBytes": "1"
      },
      "t_bytes32": {
        "encoding": "inplace",
        "label": "bytes32",
        "numberOfBytes": "32"
      },
      "t_struct(OutputProposal)7275_storage": {
        "encoding": "inplace",
        "label": "struct Types.OutputProposal",
        "numberOfBytes": "64",
        "members": [
          {
            "astId": 7270,
            "contract": "contracts/L1/L2OutputOracle.sol:L2OutputOracle",
            "label": "outputRoot",
            "offset": 0,
            "slot": "0",
            "type": "t_bytes32"
          },
          {
            "astId": 7272,
            "contract": "contracts/L1/L2OutputOracle.sol:L2OutputOracle",
            "label": "timestamp",
            "offset": 0,
            "slot": "1",
            "type": "t_uint128"
          },
          {
            "astId": 7274,
            "contract": "contracts/L1/L2OutputOracle.sol:L2OutputOracle",
            "label": "l2BlockNumber",
            "offset": 16,
            "slot": "1",
            "type": "t_uint128"
          }
        ]
      },
      "t_uint128": {
        "encoding": "inplace",
        "label": "uint128",
        "numberOfBytes": "16"
      },
      "t_uint256": {
        "encoding": "inplace",
        "label": "uint256",
        "numberOfBytes": "32"
      },
      "t_uint8": {
        "encoding": "inplace",
        "label": "uint8",
        "numberOfBytes": "1"
      }
    }
  }
}