{
  "address": "0x0D9294c34246D69527B854904b5aaA9830Ec828e",
  "abi": [
    {
      "inputs": [
        {
          "internalType": "contract L2OutputOracle",
          "name": "_l2Oracle",
          "type": "address"
        },
        {
          "internalType": "uint256",
          "name": "_finalizationPeriodSeconds",
          "type": "uint256"
        },
        {
          "internalType": "address",
          "name": "_guardian",
          "type": "address"
        },
        {
          "internalType": "bool",
          "name": "_paused",
          "type": "bool"
        }
      ],
      "stateMutability": "nonpayable",
      "type": "constructor"
    },
    {
      "anonymous": false,
      "inputs": [
        {
          "indexed": false,
          "internalType": "uint8",
          "name": "version",
          "type": "uint8"
        }
      ],
      "name": "Initialized",
      "type": "event"
    },
    {
      "anonymous": false,
      "inputs": [
        {
          "indexed": false,
          "internalType": "address",
          "name": "account",
          "type": "address"
        }
      ],
      "name": "Paused",
      "type": "event"
    },
    {
      "anonymous": false,
      "inputs": [
        {
          "indexed": true,
          "internalType": "address",
          "name": "from",
          "type": "address"
        },
        {
          "indexed": true,
          "internalType": "address",
          "name": "to",
          "type": "address"
        },
        {
          "indexed": true,
          "internalType": "uint256",
          "name": "version",
          "type": "uint256"
        },
        {
          "indexed": false,
          "internalType": "bytes",
          "name": "opaqueData",
          "type": "bytes"
        }
      ],
      "name": "TransactionDeposited",
      "type": "event"
    },
    {
      "anonymous": false,
      "inputs": [
        {
          "indexed": false,
          "internalType": "address",
          "name": "account",
          "type": "address"
        }
      ],
      "name": "Unpaused",
      "type": "event"
    },
    {
      "anonymous": false,
      "inputs": [
        {
          "indexed": true,
          "internalType": "bytes32",
          "name": "withdrawalHash",
          "type": "bytes32"
        },
        {
          "indexed": false,
          "internalType": "bool",
          "name": "success",
          "type": "bool"
        }
      ],
      "name": "WithdrawalFinalized",
      "type": "event"
    },
    {
      "anonymous": false,
      "inputs": [
        {
          "indexed": true,
          "internalType": "bytes32",
          "name": "withdrawalHash",
          "type": "bytes32"
        },
        {
          "indexed": true,
          "internalType": "address",
          "name": "from",
          "type": "address"
        },
        {
          "indexed": true,
          "internalType": "address",
          "name": "to",
          "type": "address"
        }
      ],
      "name": "WithdrawalProven",
      "type": "event"
    },
    {
      "inputs": [],
      "name": "BASE_FEE_MAX_CHANGE_DENOMINATOR",
      "outputs": [
        {
          "internalType": "int256",
          "name": "",
          "type": "int256"
        }
      ],
      "stateMutability": "view",
      "type": "function"
    },
    {
      "inputs": [],
      "name": "ELASTICITY_MULTIPLIER",
      "outputs": [
        {
          "internalType": "int256",
          "name": "",
          "type": "int256"
        }
      ],
      "stateMutability": "view",
      "type": "function"
    },
    {
      "inputs": [],
      "name": "FINALIZATION_PERIOD_SECONDS",
      "outputs": [
        {
          "internalType": "uint256",
          "name": "",
          "type": "uint256"
        }
      ],
      "stateMutability": "view",
      "type": "function"
    },
    {
      "inputs": [],
      "name": "GUARDIAN",
      "outputs": [
        {
          "internalType": "address",
          "name": "",
          "type": "address"
        }
      ],
      "stateMutability": "view",
      "type": "function"
    },
    {
      "inputs": [],
      "name": "INITIAL_BASE_FEE",
      "outputs": [
        {
          "internalType": "uint128",
          "name": "",
          "type": "uint128"
        }
      ],
      "stateMutability": "view",
      "type": "function"
    },
    {
      "inputs": [],
      "name": "L2_ORACLE",
      "outputs": [
        {
          "internalType": "contract L2OutputOracle",
          "name": "",
          "type": "address"
        }
      ],
      "stateMutability": "view",
      "type": "function"
    },
    {
      "inputs": [],
      "name": "MAXIMUM_BASE_FEE",
      "outputs": [
        {
          "internalType": "int256",
          "name": "",
          "type": "int256"
        }
      ],
      "stateMutability": "view",
      "type": "function"
    },
    {
      "inputs": [],
      "name": "MAX_RESOURCE_LIMIT",
      "outputs": [
        {
          "internalType": "int256",
          "name": "",
          "type": "int256"
        }
      ],
      "stateMutability": "view",
      "type": "function"
    },
    {
      "inputs": [],
      "name": "MINIMUM_BASE_FEE",
      "outputs": [
        {
          "internalType": "int256",
          "name": "",
          "type": "int256"
        }
      ],
      "stateMutability": "view",
      "type": "function"
    },
    {
      "inputs": [],
      "name": "TARGET_RESOURCE_LIMIT",
      "outputs": [
        {
          "internalType": "int256",
          "name": "",
          "type": "int256"
        }
      ],
      "stateMutability": "view",
      "type": "function"
    },
    {
      "inputs": [
        {
          "internalType": "address",
          "name": "_to",
          "type": "address"
        },
        {
          "internalType": "uint256",
          "name": "_value",
          "type": "uint256"
        },
        {
          "internalType": "uint64",
          "name": "_gasLimit",
          "type": "uint64"
        },
        {
          "internalType": "bool",
          "name": "_isCreation",
          "type": "bool"
        },
        {
          "internalType": "bytes",
          "name": "_data",
          "type": "bytes"
        }
      ],
      "name": "depositTransaction",
      "outputs": [],
      "stateMutability": "payable",
      "type": "function"
    },
    {
      "inputs": [],
      "name": "donateETH",
      "outputs": [],
      "stateMutability": "payable",
      "type": "function"
    },
    {
      "inputs": [
        {
          "components": [
            {
              "internalType": "uint256",
              "name": "nonce",
              "type": "uint256"
            },
            {
              "internalType": "address",
              "name": "sender",
              "type": "address"
            },
            {
              "internalType": "address",
              "name": "target",
              "type": "address"
            },
            {
              "internalType": "uint256",
              "name": "value",
              "type": "uint256"
            },
            {
              "internalType": "uint256",
              "name": "gasLimit",
              "type": "uint256"
            },
            {
              "internalType": "bytes",
              "name": "data",
              "type": "bytes"
            }
          ],
          "internalType": "struct Types.WithdrawalTransaction",
          "name": "_tx",
          "type": "tuple"
        }
      ],
      "name": "finalizeWithdrawalTransaction",
      "outputs": [],
      "stateMutability": "nonpayable",
      "type": "function"
    },
    {
      "inputs": [
        {
          "internalType": "bytes32",
          "name": "",
          "type": "bytes32"
        }
      ],
      "name": "finalizedWithdrawals",
      "outputs": [
        {
          "internalType": "bool",
          "name": "",
          "type": "bool"
        }
      ],
      "stateMutability": "view",
      "type": "function"
    },
    {
      "inputs": [
        {
          "internalType": "bool",
          "name": "_paused",
          "type": "bool"
        }
      ],
      "name": "initialize",
      "outputs": [],
      "stateMutability": "nonpayable",
      "type": "function"
    },
    {
      "inputs": [
        {
          "internalType": "uint256",
          "name": "_l2OutputIndex",
          "type": "uint256"
        }
      ],
      "name": "isOutputFinalized",
      "outputs": [
        {
          "internalType": "bool",
          "name": "",
          "type": "bool"
        }
      ],
      "stateMutability": "view",
      "type": "function"
    },
    {
      "inputs": [],
      "name": "l2Sender",
      "outputs": [
        {
          "internalType": "address",
          "name": "",
          "type": "address"
        }
      ],
      "stateMutability": "view",
      "type": "function"
    },
    {
      "inputs": [],
      "name": "params",
      "outputs": [
        {
          "internalType": "uint128",
          "name": "prevBaseFee",
          "type": "uint128"
        },
        {
          "internalType": "uint64",
          "name": "prevBoughtGas",
          "type": "uint64"
        },
        {
          "internalType": "uint64",
          "name": "prevBlockNum",
          "type": "uint64"
        }
      ],
      "stateMutability": "view",
      "type": "function"
    },
    {
      "inputs": [],
      "name": "pause",
      "outputs": [],
      "stateMutability": "nonpayable",
      "type": "function"
    },
    {
      "inputs": [],
      "name": "paused",
      "outputs": [
        {
          "internalType": "bool",
          "name": "",
          "type": "bool"
        }
      ],
      "stateMutability": "view",
      "type": "function"
    },
    {
      "inputs": [
        {
          "components": [
            {
              "internalType": "uint256",
              "name": "nonce",
              "type": "uint256"
            },
            {
              "internalType": "address",
              "name": "sender",
              "type": "address"
            },
            {
              "internalType": "address",
              "name": "target",
              "type": "address"
            },
            {
              "internalType": "uint256",
              "name": "value",
              "type": "uint256"
            },
            {
              "internalType": "uint256",
              "name": "gasLimit",
              "type": "uint256"
            },
            {
              "internalType": "bytes",
              "name": "data",
              "type": "bytes"
            }
          ],
          "internalType": "struct Types.WithdrawalTransaction",
          "name": "_tx",
          "type": "tuple"
        },
        {
          "internalType": "uint256",
          "name": "_l2OutputIndex",
          "type": "uint256"
        },
        {
          "components": [
            {
              "internalType": "bytes32",
              "name": "version",
              "type": "bytes32"
            },
            {
              "internalType": "bytes32",
              "name": "stateRoot",
              "type": "bytes32"
            },
            {
              "internalType": "bytes32",
              "name": "messagePasserStorageRoot",
              "type": "bytes32"
            },
            {
              "internalType": "bytes32",
              "name": "latestBlockhash",
              "type": "bytes32"
            }
          ],
          "internalType": "struct Types.OutputRootProof",
          "name": "_outputRootProof",
          "type": "tuple"
        },
        {
          "internalType": "bytes[]",
          "name": "_withdrawalProof",
          "type": "bytes[]"
        }
      ],
      "name": "proveWithdrawalTransaction",
      "outputs": [],
      "stateMutability": "nonpayable",
      "type": "function"
    },
    {
      "inputs": [
        {
          "internalType": "bytes32",
          "name": "",
          "type": "bytes32"
        }
      ],
      "name": "provenWithdrawals",
      "outputs": [
        {
          "internalType": "bytes32",
          "name": "outputRoot",
          "type": "bytes32"
        },
        {
          "internalType": "uint128",
          "name": "timestamp",
          "type": "uint128"
        },
        {
          "internalType": "uint128",
          "name": "l2OutputIndex",
          "type": "uint128"
        }
      ],
      "stateMutability": "view",
      "type": "function"
    },
    {
      "inputs": [],
      "name": "unpause",
      "outputs": [],
      "stateMutability": "nonpayable",
      "type": "function"
    },
    {
      "inputs": [],
      "name": "version",
      "outputs": [
        {
          "internalType": "string",
          "name": "",
          "type": "string"
        }
      ],
      "stateMutability": "view",
      "type": "function"
    },
    {
      "stateMutability": "payable",
      "type": "receive"
    }
  ],
  "transactionHash": "0x578b07740dac629d83e271030ef276ad3ebd8724fed150b36a45126a61c947f2",
  "args": [
    "0x73CB7C74A49D89f619e6AC689E8De2fee81c38ea",
    2,
    "0x98EDAAD7C3cd90F50c56e5E85eC59478c3906AF9",
    true
  ],
  "numDeployments": 1,
  "solcInputHash": "ae6f534a2ad75b1ba1d307e731c3d987",
  "bytecode": "0x6101406040523480156200001257600080fd5b506040516200595f3803806200595f833981016040819052620000359162000295565b6001608081905260a052600060c0526001600160a01b038085166101005282166101205260e0839052620000698162000073565b50505050620002f5565b600054610100900460ff1615808015620000945750600054600160ff909116105b80620000c45750620000b130620001ca60201b620020a31760201c565b158015620000c4575060005460ff166001145b6200012d5760405162461bcd60e51b815260206004820152602e60248201527f496e697469616c697a61626c653a20636f6e747261637420697320616c72656160448201526d191e481a5b9a5d1a585b1a5e995960921b60648201526084015b60405180910390fd5b6000805460ff19166001179055801562000151576000805461ff0019166101001790555b603280546001600160a01b03191661dead1790556035805483151560ff199091161790556200017f620001d9565b8015620001c6576000805461ff0019169055604051600181527f7f26b83ff96e1f2b6a682f133852f6798a09c465da95921460cefb38474024989060200160405180910390a15b5050565b6001600160a01b03163b151590565b600054610100900460ff16620002465760405162461bcd60e51b815260206004820152602b60248201527f496e697469616c697a61626c653a20636f6e7472616374206973206e6f74206960448201526a6e697469616c697a696e6760a81b606482015260840162000124565b60408051606081018252633b9aca0080825260006020830152436001600160401b031691909201819052600160c01b0217600155565b6001600160a01b03811681146200029257600080fd5b50565b60008060008060808587031215620002ac57600080fd5b8451620002b9816200027c565b602086015160408701519195509350620002d3816200027c565b60608601519092508015158114620002ea57600080fd5b939692955090935050565b60805160a05160c05160e05161010051610120516155e26200037d6000396000818161036201528181610b17015261141a0152600081816101cc01528181610d8001528181610f61015281816113760152818161173001526119a20152600081816105c8015261236c015260006112e1015260006112b80152600061128f01526155e26000f3fe60806040526004361061018e5760003560e01c8063867ead13116100d6578063cd7c97891161007f578063e965084c11610059578063e965084c14610517578063e9e05c42146105a3578063f4daa291146105b657600080fd5b8063cd7c978914610441578063cff0ab9614610456578063d53a822f146104f757600080fd5b80639bf62d82116100b05780639bf62d82146103cf578063a14238e7146103fc578063ca3e99ba1461042c57600080fd5b8063867ead13146103995780638b4c40b0146101b35780638c3152e9146103af57600080fd5b80635c975abb116101385780636dbffb78116101125780636dbffb7814610330578063724c184c146103505780638456cb591461038457600080fd5b80635c975abb146102da57806364b79208146103045780636bb0291e1461031b57600080fd5b80634870496f116101695780634870496f1461026657806354fd4d50146102865780635c1f2827146102a857600080fd5b80621c2ff6146101ba57806313620abd146102185780633f4ba83a1461025157600080fd5b366101b5576101b33334620186a06000604051806020016040528060008152506105ea565b005b600080fd5b3480156101c657600080fd5b506101ee7f000000000000000000000000000000000000000000000000000000000000000081565b60405173ffffffffffffffffffffffffffffffffffffffff90911681526020015b60405180910390f35b34801561022457600080fd5b50610230633b9aca0081565b6040516fffffffffffffffffffffffffffffffff909116815260200161020f565b34801561025d57600080fd5b506101b3610aff565b34801561027257600080fd5b506101b3610281366004614c77565b610c22565b34801561029257600080fd5b5061029b611288565b60405161020f9190614dcd565b3480156102b457600080fd5b506102cc6fffffffffffffffffffffffffffffffff81565b60405190815260200161020f565b3480156102e657600080fd5b506035546102f49060ff1681565b604051901515815260200161020f565b34801561031057600080fd5b506102cc627a120081565b34801561032757600080fd5b506102cc600481565b34801561033c57600080fd5b506102f461034b366004614de0565b61132b565b34801561035c57600080fd5b506101ee7f000000000000000000000000000000000000000000000000000000000000000081565b34801561039057600080fd5b506101b3611402565b3480156103a557600080fd5b506102cc61271081565b3480156103bb57600080fd5b506101b36103ca366004614df9565b611522565b3480156103db57600080fd5b506032546101ee9073ffffffffffffffffffffffffffffffffffffffff1681565b34801561040857600080fd5b506102f4610417366004614de0565b60336020526000908152604090205460ff1681565b34801561043857600080fd5b506102cc611ea5565b34801561044d57600080fd5b506102cc600881565b34801561046257600080fd5b506001546104be906fffffffffffffffffffffffffffffffff81169067ffffffffffffffff7001000000000000000000000000000000008204811691780100000000000000000000000000000000000000000000000090041683565b604080516fffffffffffffffffffffffffffffffff909416845267ffffffffffffffff928316602085015291169082015260600161020f565b34801561050357600080fd5b506101b3610512366004614e3e565b611eb6565b34801561052357600080fd5b50610575610532366004614de0565b603460205260009081526040902080546001909101546fffffffffffffffffffffffffffffffff8082169170010000000000000000000000000000000090041683565b604080519384526fffffffffffffffffffffffffffffffff928316602085015291169082015260600161020f565b6101b36105b1366004614e59565b6105ea565b3480156105c257600080fd5b506102cc7f000000000000000000000000000000000000000000000000000000000000000081565b8260005a905083156106a15773ffffffffffffffffffffffffffffffffffffffff8716156106a157604080517f08c379a00000000000000000000000000000000000000000000000000000000081526020600482015260248101919091527f4f7074696d69736d506f7274616c3a206d7573742073656e6420746f2061646460448201527f72657373283029207768656e206372656174696e67206120636f6e747261637460648201526084015b60405180910390fd5b6152088567ffffffffffffffff16101561073d576040517f08c379a000000000000000000000000000000000000000000000000000000000815260206004820152603860248201527f4f7074696d69736d506f7274616c3a20676173206c696d6974206d757374206360448201527f6f76657220696e737472696e7369632067617320636f737400000000000000006064820152608401610698565b3332811461075e575033731111000000000000000000000000000000001111015b60003488888888604051602001610779959493929190614ede565b604051602081830303815290604052905060008973ffffffffffffffffffffffffffffffffffffffff168373ffffffffffffffffffffffffffffffffffffffff167fb3813568d9991fc951961fcb4c784893574240a28925604d09fc577c55bb7c32846040516107e99190614dcd565b60405180910390a45050600154600090610829907801000000000000000000000000000000000000000000000000900467ffffffffffffffff1643614f72565b9050801561095d5760006108416004627a1200614fb8565b60015461086c9190700100000000000000000000000000000000900467ffffffffffffffff16615020565b9050600060086108806004627a1200614fb8565b61088a9190615094565b6001546108aa9084906fffffffffffffffffffffffffffffffff16615094565b6108b49190614fb8565b6001549091506000906108f7906108de9084906fffffffffffffffffffffffffffffffff16615150565b6127106fffffffffffffffffffffffffffffffff6120bf565b9050600184111561091e5761091b6108de826008610916600189614f72565b6120de565b90505b6fffffffffffffffffffffffffffffffff16780100000000000000000000000000000000000000000000000067ffffffffffffffff4316021760015550505b60018054849190601090610990908490700100000000000000000000000000000000900467ffffffffffffffff166151c4565b92506101000a81548167ffffffffffffffff021916908367ffffffffffffffff160217905550627a1200600160000160109054906101000a900467ffffffffffffffff1667ffffffffffffffff161315610a6c576040517f08c379a000000000000000000000000000000000000000000000000000000000815260206004820152603e60248201527f5265736f757263654d65746572696e673a2063616e6e6f7420627579206d6f7260448201527f6520676173207468616e20617661696c61626c6520676173206c696d697400006064820152608401610698565b600154600090610a98906fffffffffffffffffffffffffffffffff1667ffffffffffffffff86166151f0565b6fffffffffffffffffffffffffffffffff1690506000610abd6000633b9aca00612133565b610ac79083615228565b905060005a610ad69086614f72565b905080821115610af257610af2610aed8284614f72565b61214a565b5050505050505050505050565b3373ffffffffffffffffffffffffffffffffffffffff7f00000000000000000000000000000000000000000000000000000000000000001614610bc4576040517f08c379a000000000000000000000000000000000000000000000000000000000815260206004820152602960248201527f4f7074696d69736d506f7274616c3a206f6e6c7920677561726469616e20636160448201527f6e20756e706175736500000000000000000000000000000000000000000000006064820152608401610698565b603580547fffffffffffffffffffffffffffffffffffffffffffffffffffffffffffffff001690556040513381527f5db9ee0a495bf2e6ff9c91a7834c1ba4fdd244a5e8aa4e537bd38aeae4b073aa906020015b60405180910390a1565b60355460ff1615610c8f576040517f08c379a000000000000000000000000000000000000000000000000000000000815260206004820152601660248201527f4f7074696d69736d506f7274616c3a20706175736564000000000000000000006044820152606401610698565b3073ffffffffffffffffffffffffffffffffffffffff16856040015173ffffffffffffffffffffffffffffffffffffffff1603610d4e576040517f08c379a000000000000000000000000000000000000000000000000000000000815260206004820152603f60248201527f4f7074696d69736d506f7274616c3a20796f752063616e6e6f742073656e642060448201527f6d6573736167657320746f2074686520706f7274616c20636f6e7472616374006064820152608401610698565b6040517fa25ae557000000000000000000000000000000000000000000000000000000008152600481018590526000907f000000000000000000000000000000000000000000000000000000000000000073ffffffffffffffffffffffffffffffffffffffff169063a25ae55790602401606060405180830381865afa158015610ddc573d6000803e3d6000fd5b505050506040513d601f19601f82011682018060405250810190610e00919061525c565b519050610e1a610e15368690038601866152c1565b612178565b8114610ea8576040517f08c379a000000000000000000000000000000000000000000000000000000000815260206004820152602960248201527f4f7074696d69736d506f7274616c3a20696e76616c6964206f7574707574207260448201527f6f6f742070726f6f6600000000000000000000000000000000000000000000006064820152608401610698565b6000610eb3876121d4565b6000818152603460209081526040918290208251606081018452815481526001909101546fffffffffffffffffffffffffffffffff8082169383018490527001000000000000000000000000000000009091041692810192909252919250901580610fe55750805160408083015190517fa25ae5570000000000000000000000000000000000000000000000000000000081526fffffffffffffffffffffffffffffffff90911660048201527f000000000000000000000000000000000000000000000000000000000000000073ffffffffffffffffffffffffffffffffffffffff169063a25ae55790602401606060405180830381865afa158015610fbd573d6000803e3d6000fd5b505050506040513d601f19601f82011682018060405250810190610fe1919061525c565b5114155b611071576040517f08c379a000000000000000000000000000000000000000000000000000000000815260206004820152603760248201527f4f7074696d69736d506f7274616c3a207769746864726177616c20686173682060448201527f68617320616c7265616479206265656e2070726f76656e0000000000000000006064820152608401610698565b60408051602081018490526000918101829052606001604080517fffffffffffffffffffffffffffffffffffffffffffffffffffffffffffffffe08184030181528282528051602091820120908301819052925061113a9101604080517fffffffffffffffffffffffffffffffffffffffffffffffffffffffffffffffe0818403018152828201909152600182527f0100000000000000000000000000000000000000000000000000000000000000602083015290611130888a615327565b8a60400135612204565b6111c6576040517f08c379a000000000000000000000000000000000000000000000000000000000815260206004820152603260248201527f4f7074696d69736d506f7274616c3a20696e76616c696420776974686472617760448201527f616c20696e636c7573696f6e2070726f6f6600000000000000000000000000006064820152608401610698565b604080516060810182528581526fffffffffffffffffffffffffffffffff42811660208084019182528c831684860190815260008981526034835286812095518655925190518416700100000000000000000000000000000000029316929092176001909301929092558b830151908c0151925173ffffffffffffffffffffffffffffffffffffffff918216939091169186917f67a6208cfcc0801d50f6cbe764733f4fddf66ac0b04442061a8a8c0cb6b63f629190a4505050505050505050565b60606112b37f0000000000000000000000000000000000000000000000000000000000000000612228565b6112dc7f0000000000000000000000000000000000000000000000000000000000000000612228565b6113057f0000000000000000000000000000000000000000000000000000000000000000612228565b604051602001611317939291906153ab565b604051602081830303815290604052905090565b6040517fa25ae557000000000000000000000000000000000000000000000000000000008152600481018290526000906113fc9073ffffffffffffffffffffffffffffffffffffffff7f0000000000000000000000000000000000000000000000000000000000000000169063a25ae55790602401606060405180830381865afa1580156113bd573d6000803e3d6000fd5b505050506040513d601f19601f820116820180604052508101906113e1919061525c565b602001516fffffffffffffffffffffffffffffffff16612365565b92915050565b3373ffffffffffffffffffffffffffffffffffffffff7f000000000000000000000000000000000000000000000000000000000000000016146114c7576040517f08c379a000000000000000000000000000000000000000000000000000000000815260206004820152602760248201527f4f7074696d69736d506f7274616c3a206f6e6c7920677561726469616e20636160448201527f6e207061757365000000000000000000000000000000000000000000000000006064820152608401610698565b603580547fffffffffffffffffffffffffffffffffffffffffffffffffffffffffffffff001660011790556040513381527f62e78cea01bee320cd4e420270b5ea74000d11b0c9f74754ebdbfc544b05a25890602001610c18565b60355460ff161561158f576040517f08c379a000000000000000000000000000000000000000000000000000000000815260206004820152601660248201527f4f7074696d69736d506f7274616c3a20706175736564000000000000000000006044820152606401610698565b60325473ffffffffffffffffffffffffffffffffffffffff1661dead14611638576040517f08c379a000000000000000000000000000000000000000000000000000000000815260206004820152603f60248201527f4f7074696d69736d506f7274616c3a2063616e206f6e6c79207472696767657260448201527f206f6e65207769746864726177616c20706572207472616e73616374696f6e006064820152608401610698565b6000611643826121d4565b60008181526034602090815260408083208151606081018352815481526001909101546fffffffffffffffffffffffffffffffff8082169483018590527001000000000000000000000000000000009091041691810191909152929350900361172e576040517f08c379a000000000000000000000000000000000000000000000000000000000815260206004820152603260248201527f4f7074696d69736d506f7274616c3a207769746864726177616c20686173206e60448201527f6f74206265656e2070726f76656e2079657400000000000000000000000000006064820152608401610698565b7f000000000000000000000000000000000000000000000000000000000000000073ffffffffffffffffffffffffffffffffffffffff1663887862726040518163ffffffff1660e01b8152600401602060405180830381865afa158015611799573d6000803e3d6000fd5b505050506040513d601f19601f820116820180604052508101906117bd9190615421565b81602001516fffffffffffffffffffffffffffffffff161015611888576040517f08c379a000000000000000000000000000000000000000000000000000000000815260206004820152604b60248201527f4f7074696d69736d506f7274616c3a207769746864726177616c2074696d657360448201527f74616d70206c657373207468616e204c32204f7261636c65207374617274696e60648201527f672074696d657374616d70000000000000000000000000000000000000000000608482015260a401610698565b6118a781602001516fffffffffffffffffffffffffffffffff16612365565b611959576040517f08c379a000000000000000000000000000000000000000000000000000000000815260206004820152604560248201527f4f7074696d69736d506f7274616c3a2070726f76656e2077697468647261776160448201527f6c2066696e616c697a6174696f6e20706572696f6420686173206e6f7420656c60648201527f6170736564000000000000000000000000000000000000000000000000000000608482015260a401610698565b60408181015190517fa25ae5570000000000000000000000000000000000000000000000000000000081526fffffffffffffffffffffffffffffffff90911660048201526000907f000000000000000000000000000000000000000000000000000000000000000073ffffffffffffffffffffffffffffffffffffffff169063a25ae55790602401606060405180830381865afa1580156119fe573d6000803e3d6000fd5b505050506040513d601f19601f82011682018060405250810190611a22919061525c565b8251815191925014611adc576040517f08c379a000000000000000000000000000000000000000000000000000000000815260206004820152604960248201527f4f7074696d69736d506f7274616c3a206f757470757420726f6f742070726f7660448201527f656e206973206e6f74207468652073616d652061732063757272656e74206f7560648201527f7470757420726f6f740000000000000000000000000000000000000000000000608482015260a401610698565b611afb81602001516fffffffffffffffffffffffffffffffff16612365565b611bad576040517f08c379a000000000000000000000000000000000000000000000000000000000815260206004820152604360248201527f4f7074696d69736d506f7274616c3a206f75747075742070726f706f73616c2060448201527f66696e616c697a6174696f6e20706572696f6420686173206e6f7420656c617060648201527f7365640000000000000000000000000000000000000000000000000000000000608482015260a401610698565b60008381526033602052604090205460ff1615611c4c576040517f08c379a000000000000000000000000000000000000000000000000000000000815260206004820152603560248201527f4f7074696d69736d506f7274616c3a207769746864726177616c20686173206160448201527f6c7265616479206265656e2066696e616c697a656400000000000000000000006064820152608401610698565b600083815260336020526040902080547fffffffffffffffffffffffffffffffffffffffffffffffffffffffffffffff001660011790556080840151611c9590614e209061543a565b5a1015611d24576040517f08c379a000000000000000000000000000000000000000000000000000000000815260206004820152603760248201527f4f7074696d69736d506f7274616c3a20696e73756666696369656e742067617360448201527f20746f2066696e616c697a65207769746864726177616c0000000000000000006064820152608401610698565b6020840151603280547fffffffffffffffffffffffff00000000000000000000000000000000000000001673ffffffffffffffffffffffffffffffffffffffff9092169190911790556040840151600090611d9690614e205a611d879190614f72565b87606001518860a00151612399565b603280547fffffffffffffffffffffffff00000000000000000000000000000000000000001661dead17905560405190915084907fdb5c7652857aa163daadd670e116628fb42e869d8ac4251ef8971d9e5727df1b90611dfb90841515815260200190565b60405180910390a280158015611e115750326001145b15611e9e576040517f08c379a000000000000000000000000000000000000000000000000000000000815260206004820152602160248201527f4f7074696d69736d506f7274616c3a207769746864726177616c206661696c6560448201527f64000000000000000000000000000000000000000000000000000000000000006064820152608401610698565b5050505050565b611eb36004627a1200614fb8565b81565b600054610100900460ff1615808015611ed65750600054600160ff909116105b80611ef05750303b158015611ef0575060005460ff166001145b611f7c576040517f08c379a000000000000000000000000000000000000000000000000000000000815260206004820152602e60248201527f496e697469616c697a61626c653a20636f6e747261637420697320616c72656160448201527f647920696e697469616c697a65640000000000000000000000000000000000006064820152608401610698565b600080547fffffffffffffffffffffffffffffffffffffffffffffffffffffffffffffff001660011790558015611fda57600080547fffffffffffffffffffffffffffffffffffffffffffffffffffffffffffff00ff166101001790555b603280547fffffffffffffffffffffffff00000000000000000000000000000000000000001661dead179055603580548315157fffffffffffffffffffffffffffffffffffffffffffffffffffffffffffffff0090911617905561203c6123b3565b801561209f57600080547fffffffffffffffffffffffffffffffffffffffffffffffffffffffffffff00ff169055604051600181527f7f26b83ff96e1f2b6a682f133852f6798a09c465da95921460cefb38474024989060200160405180910390a15b5050565b73ffffffffffffffffffffffffffffffffffffffff163b151590565b60006120d46120ce8585612496565b836124a6565b90505b9392505050565b6000670de0b6b3a764000061211f6120f68583614fb8565b61210890670de0b6b3a7640000615020565b61211a85670de0b6b3a7640000615094565b6124b5565b6121299086615094565b6120d49190614fb8565b60008183101561214357816120d7565b5090919050565b6000805a90505b825a61215d9083614f72565b10156121735761216c82615452565b9150612151565b505050565b600081600001518260200151836040015184606001516040516020016121b7949392919093845260208401929092526040830152606082015260800190565b604051602081830303815290604052805190602001209050919050565b80516020808301516040808501516060860151608087015160a088015193516000976121b797909695910161548a565b600080612210866124e6565b905061221e81868686612518565b9695505050505050565b60608160000361226b57505060408051808201909152600181527f3000000000000000000000000000000000000000000000000000000000000000602082015290565b8160005b8115612295578061227f81615452565b915061228e9050600a83615228565b915061226f565b60008167ffffffffffffffff8111156122b0576122b0614a9d565b6040519080825280601f01601f1916602001820160405280156122da576020820181803683370190505b5090505b841561235d576122ef600183614f72565b91506122fc600a866154e1565b61230790603061543a565b60f81b81838151811061231c5761231c6154f5565b60200101907effffffffffffffffffffffffffffffffffffffffffffffffffffffffffffff1916908160001a905350612356600a86615228565b94506122de565b949350505050565b60006123917f00000000000000000000000000000000000000000000000000000000000000008361543a565b421192915050565b600080600080845160208601878a8af19695505050505050565b600054610100900460ff1661244a576040517f08c379a000000000000000000000000000000000000000000000000000000000815260206004820152602b60248201527f496e697469616c697a61626c653a20636f6e7472616374206973206e6f74206960448201527f6e697469616c697a696e670000000000000000000000000000000000000000006064820152608401610698565b60408051606081018252633b9aca00808252600060208301524367ffffffffffffffff169190920181905278010000000000000000000000000000000000000000000000000217600155565b60008183121561214357816120d7565b600081831261214357816120d7565b60006120d7670de0b6b3a7640000836124cd86612548565b6124d79190615094565b6124e19190614fb8565b61278c565b6060818051906020012060405160200161250291815260200190565b6040516020818303038152906040529050919050565b600061253f846125298786866129cb565b8051602091820120825192909101919091201490565b95945050505050565b60008082136125b3576040517f08c379a000000000000000000000000000000000000000000000000000000000815260206004820152600960248201527f554e444546494e454400000000000000000000000000000000000000000000006044820152606401610698565b600060606125c084613453565b03609f8181039490941b90931c6c465772b2bbbb5f824b15207a3081018102606090811d6d0388eaa27412d5aca026815d636e018202811d6d0df99ac502031bf953eff472fdcc018202811d6d13cdffb29d51d99322bdff5f2211018202811d6d0a0f742023def783a307a986912e018202811d6d01920d8043ca89b5239253284e42018202811d6c0b7a86d7375468fac667a0a527016c29508e458543d8aa4df2abee7883018302821d6d0139601a2efabe717e604cbb4894018302821d6d02247f7a7b6594320649aa03aba1018302821d7fffffffffffffffffffffffffffffffffffffff73c0c716a594e00d54e3c4cbc9018302821d7ffffffffffffffffffffffffffffffffffffffdc7b88c420e53a9890533129f6f01830290911d7fffffffffffffffffffffffffffffffffffffff465fda27eb4d63ded474e5f832019091027ffffffffffffffff5f6af8f7b3396644f18e157960000000000000000000000000105711340daa0d5f769dba1915cef59f0815a5506027d0267a36c0c95b3975ab3ee5b203a7614a3f75373f047d803ae7b6687f2b393909302929092017d57115e47018c7177eebf7cd370a3356a1b7863008a5ae8028c72b88642840160ae1d92915050565b60007ffffffffffffffffffffffffffffffffffffffffffffffffdb731c958f34d94c182136127bd57506000919050565b680755bf798b4a1bf1e5821261282f576040517f08c379a000000000000000000000000000000000000000000000000000000000815260206004820152600c60248201527f4558505f4f564552464c4f5700000000000000000000000000000000000000006044820152606401610698565b6503782dace9d9604e83901b059150600060606bb17217f7d1cf79abc9e3b39884821b056b80000000000000000000000001901d6bb17217f7d1cf79abc9e3b39881029093037fffffffffffffffffffffffffffffffffffffffdbf3ccf1604d263450f02a550481018102606090811d6d0277594991cfc85f6e2461837cd9018202811d7fffffffffffffffffffffffffffffffffffffe5adedaa1cb095af9e4da10e363c018202811d6db1bbb201f443cf962f1a1d3db4a5018202811d7ffffffffffffffffffffffffffffffffffffd38dc772608b0ae56cce01296c0eb018202811d6e05180bb14799ab47a8a8cb2a527d57016d02d16720577bd19bf614176fe9ea6c10fe68e7fd37d0007b713f765084018402831d9081019084017ffffffffffffffffffffffffffffffffffffffe2c69812cf03b0763fd454a8f7e010290911d6e0587f503bb6ea29d25fcb7401964500190910279d835ebba824c98fb31b83b2ca45c000000000000000000000000010574029d9dc38563c32e5c2f6dc192ee70ef65f9978af30260c3939093039290921c92915050565b60606000845111612a38576040517f08c379a000000000000000000000000000000000000000000000000000000000815260206004820152601560248201527f4d65726b6c65547269653a20656d707479206b657900000000000000000000006044820152606401610698565b6000612a4384613529565b90506000612a5086613618565b9050600084604051602001612a6791815260200190565b60405160208183030381529060405290506000805b84518110156133ca576000858281518110612a9957612a996154f5565b602002602001015190508451831115612b34576040517f08c379a000000000000000000000000000000000000000000000000000000000815260206004820152602e60248201527f4d65726b6c65547269653a206b657920696e646578206578636565647320746f60448201527f74616c206b6579206c656e6774680000000000000000000000000000000000006064820152608401610698565b82600003612bed5780518051602091820120604051612b8292612b5c92910190815260200190565b604051602081830303815290604052858051602091820120825192909101919091201490565b612be8576040517f08c379a000000000000000000000000000000000000000000000000000000000815260206004820152601d60248201527f4d65726b6c65547269653a20696e76616c696420726f6f7420686173680000006044820152606401610698565b612d44565b805151602011612ca35780518051602091820120604051612c1792612b5c92910190815260200190565b612be8576040517f08c379a000000000000000000000000000000000000000000000000000000000815260206004820152602760248201527f4d65726b6c65547269653a20696e76616c6964206c6172676520696e7465726e60448201527f616c2068617368000000000000000000000000000000000000000000000000006064820152608401610698565b805184516020808701919091208251919092012014612d44576040517f08c379a000000000000000000000000000000000000000000000000000000000815260206004820152602660248201527f4d65726b6c65547269653a20696e76616c696420696e7465726e616c206e6f6460448201527f65206861736800000000000000000000000000000000000000000000000000006064820152608401610698565b612d506010600161543a565b81602001515103612f315784518303612ec9576000612d8c8260200151601081518110612d7f57612d7f6154f5565b60200260200101516137b3565b90506000815111612e1f576040517f08c379a000000000000000000000000000000000000000000000000000000000815260206004820152603b60248201527f4d65726b6c65547269653a2076616c7565206c656e677468206d75737420626560448201527f2067726561746572207468616e207a65726f20286272616e63682900000000006064820152608401610698565b60018751612e2d9190614f72565b8314612ebb576040517f08c379a000000000000000000000000000000000000000000000000000000000815260206004820152603a60248201527f4d65726b6c65547269653a2076616c7565206e6f6465206d757374206265206c60448201527f617374206e6f646520696e2070726f6f6620286272616e6368290000000000006064820152608401610698565b96506120d795505050505050565b6000858481518110612edd57612edd6154f5565b602001015160f81c60f81b60f81c9050600082602001518260ff1681518110612f0857612f086154f5565b60200260200101519050612f1b81613913565b9550612f2860018661543a565b945050506133b7565b60028160200151510361332f576000612f4982613938565b9050600081600081518110612f6057612f606154f5565b016020015160f81c90506000612f77600283615524565b612f82906002615546565b90506000612f93848360ff1661395c565b90506000612fa18a8961395c565b90506000612faf8383613992565b905080835114613041576040517f08c379a000000000000000000000000000000000000000000000000000000000815260206004820152603a60248201527f4d65726b6c65547269653a20706174682072656d61696e646572206d7573742060448201527f736861726520616c6c206e6962626c65732077697468206b65790000000000006064820152608401610698565b60ff851660021480613056575060ff85166003145b1561324a57808251146130eb576040517f08c379a000000000000000000000000000000000000000000000000000000000815260206004820152603d60248201527f4d65726b6c65547269653a206b65792072656d61696e646572206d757374206260448201527f65206964656e746963616c20746f20706174682072656d61696e6465720000006064820152608401610698565b60006131078860200151600181518110612d7f57612d7f6154f5565b9050600081511161319a576040517f08c379a000000000000000000000000000000000000000000000000000000000815260206004820152603960248201527f4d65726b6c65547269653a2076616c7565206c656e677468206d75737420626560448201527f2067726561746572207468616e207a65726f20286c65616629000000000000006064820152608401610698565b60018d516131a89190614f72565b8914613236576040517f08c379a000000000000000000000000000000000000000000000000000000000815260206004820152603860248201527f4d65726b6c65547269653a2076616c7565206e6f6465206d757374206265206c60448201527f617374206e6f646520696e2070726f6f6620286c6561662900000000000000006064820152608401610698565b9c506120d79b505050505050505050505050565b60ff8516158061325d575060ff85166001145b1561329c57613289876020015160018151811061327c5761327c6154f5565b6020026020010151613913565b9950613295818a61543a565b9850613324565b6040517f08c379a000000000000000000000000000000000000000000000000000000000815260206004820152603260248201527f4d65726b6c65547269653a2072656365697665642061206e6f6465207769746860448201527f20616e20756e6b6e6f776e2070726566697800000000000000000000000000006064820152608401610698565b5050505050506133b7565b6040517f08c379a000000000000000000000000000000000000000000000000000000000815260206004820152602860248201527f4d65726b6c65547269653a20726563656976656420616e20756e70617273656160448201527f626c65206e6f64650000000000000000000000000000000000000000000000006064820152608401610698565b50806133c281615452565b915050612a7c565b506040517f08c379a000000000000000000000000000000000000000000000000000000000815260206004820152602560248201527f4d65726b6c65547269653a2072616e206f7574206f662070726f6f6620656c6560448201527f6d656e74730000000000000000000000000000000000000000000000000000006064820152608401610698565b60008082116134be576040517f08c379a000000000000000000000000000000000000000000000000000000000815260206004820152600960248201527f554e444546494e454400000000000000000000000000000000000000000000006044820152606401610698565b5060016fffffffffffffffffffffffffffffffff821160071b82811c67ffffffffffffffff1060061b1782811c63ffffffff1060051b1782811c61ffff1060041b1782811c60ff10600390811b90911783811c600f1060021b1783811c909110821b1791821c111790565b805160609060008167ffffffffffffffff81111561354957613549614a9d565b60405190808252806020026020018201604052801561358e57816020015b60408051808201909152606080825260208201528152602001906001900390816135675790505b50905060005b828110156136105760405180604001604052808683815181106135b9576135b96154f5565b602002602001015181526020016135e88784815181106135db576135db6154f5565b6020026020010151613a41565b8152508282815181106135fd576135fd6154f5565b6020908102919091010152600101613594565b509392505050565b8051606090600061362a826002615569565b67ffffffffffffffff81111561364257613642614a9d565b6040519080825280601f01601f19166020018201604052801561366c576020820181803683370190505b5090506000805b838110156137a95785818151811061368d5761368d6154f5565b6020910101517fff000000000000000000000000000000000000000000000000000000000000008116925060041c7f0ff000000000000000000000000000000000000000000000000000000000000016836136e9836002615569565b815181106136f9576136f96154f5565b60200101907effffffffffffffffffffffffffffffffffffffffffffffffffffffffffffff1916908160001a9053507f0f00000000000000000000000000000000000000000000000000000000000000821683613757836002615569565b61376290600161543a565b81518110613772576137726154f5565b60200101907effffffffffffffffffffffffffffffffffffffffffffffffffffffffffffff1916908160001a905350600101613673565b5090949350505050565b606060008060006137c385613a54565b9194509250905060008160018111156137de576137de6155a6565b1461386b576040517f08c379a000000000000000000000000000000000000000000000000000000000815260206004820152603960248201527f524c505265616465723a206465636f646564206974656d207479706520666f7260448201527f206279746573206973206e6f7420612064617461206974656d000000000000006064820152608401610698565b613875828461543a565b855114613904576040517f08c379a000000000000000000000000000000000000000000000000000000000815260206004820152603460248201527f524c505265616465723a2062797465732076616c756520636f6e7461696e732060448201527f616e20696e76616c69642072656d61696e6465720000000000000000000000006064820152608401610698565b61253f856020015184846144c1565b6060602082600001511061392f5761392a826137b3565b6113fc565b6113fc82614562565b60606113fc6139578360200151600081518110612d7f57612d7f6154f5565b613618565b60608251821061397b57506040805160208101909152600081526113fc565b6120d7838384865161398d9190614f72565b614578565b600080600083518551106139a75783516139aa565b84515b90505b8082108015613a3157508382815181106139c9576139c96154f5565b602001015160f81c60f81b7effffffffffffffffffffffffffffffffffffffffffffffffffffffffffffff1916858381518110613a0857613a086154f5565b01602001517fff0000000000000000000000000000000000000000000000000000000000000016145b15613610578160010191506139ad565b60606113fc613a4f83614750565b614839565b600080600080846000015111613b12576040517f08c379a000000000000000000000000000000000000000000000000000000000815260206004820152604a60248201527f524c505265616465723a206c656e677468206f6620616e20524c50206974656d60448201527f206d7573742062652067726561746572207468616e207a65726f20746f20626560648201527f206465636f6461626c6500000000000000000000000000000000000000000000608482015260a401610698565b6020840151805160001a607f8111613b375760006001600094509450945050506144ba565b60b78111613d45576000613b4c608083614f72565b905080876000015111613c07576040517f08c379a000000000000000000000000000000000000000000000000000000000815260206004820152604e60248201527f524c505265616465723a206c656e677468206f6620636f6e74656e74206d757360448201527f742062652067726561746572207468616e20737472696e67206c656e6774682060648201527f2873686f727420737472696e6729000000000000000000000000000000000000608482015260a401610698565b6001838101517fff00000000000000000000000000000000000000000000000000000000000000169082141580613c8057507f80000000000000000000000000000000000000000000000000000000000000007fff00000000000000000000000000000000000000000000000000000000000000821610155b613d32576040517f08c379a000000000000000000000000000000000000000000000000000000000815260206004820152604d60248201527f524c505265616465723a20696e76616c6964207072656669782c2073696e676c60448201527f652062797465203c203078383020617265206e6f74207072656669786564202860648201527f73686f727420737472696e672900000000000000000000000000000000000000608482015260a401610698565b50600195509350600092506144ba915050565b60bf8111614093576000613d5a60b783614f72565b905080876000015111613e15576040517f08c379a000000000000000000000000000000000000000000000000000000000815260206004820152605160248201527f524c505265616465723a206c656e677468206f6620636f6e74656e74206d757360448201527f74206265203e207468616e206c656e677468206f6620737472696e67206c656e60648201527f67746820286c6f6e6720737472696e6729000000000000000000000000000000608482015260a401610698565b60018301517fff00000000000000000000000000000000000000000000000000000000000000166000819003613ef3576040517f08c379a000000000000000000000000000000000000000000000000000000000815260206004820152604a60248201527f524c505265616465723a206c656e677468206f6620636f6e74656e74206d757360448201527f74206e6f74206861766520616e79206c656164696e67207a65726f7320286c6f60648201527f6e6720737472696e672900000000000000000000000000000000000000000000608482015260a401610698565b600184015160088302610100031c60378111613fb7576040517f08c379a000000000000000000000000000000000000000000000000000000000815260206004820152604860248201527f524c505265616465723a206c656e677468206f6620636f6e74656e74206d757360448201527f742062652067726561746572207468616e20353520627974657320286c6f6e6760648201527f20737472696e6729000000000000000000000000000000000000000000000000608482015260a401610698565b613fc1818461543a565b895111614076576040517f08c379a000000000000000000000000000000000000000000000000000000000815260206004820152604c60248201527f524c505265616465723a206c656e677468206f6620636f6e74656e74206d757360448201527f742062652067726561746572207468616e20746f74616c206c656e677468202860648201527f6c6f6e6720737472696e67290000000000000000000000000000000000000000608482015260a401610698565b61408183600161543a565b97509550600094506144ba9350505050565b60f781116141745760006140a860c083614f72565b905080876000015111614163576040517f08c379a000000000000000000000000000000000000000000000000000000000815260206004820152604a60248201527f524c505265616465723a206c656e677468206f6620636f6e74656e74206d757360448201527f742062652067726561746572207468616e206c697374206c656e67746820287360648201527f686f7274206c6973742900000000000000000000000000000000000000000000608482015260a401610698565b6001955093508492506144ba915050565b600061418160f783614f72565b90508087600001511161423c576040517f08c379a000000000000000000000000000000000000000000000000000000000815260206004820152604d60248201527f524c505265616465723a206c656e677468206f6620636f6e74656e74206d757360448201527f74206265203e207468616e206c656e677468206f66206c697374206c656e677460648201527f6820286c6f6e67206c6973742900000000000000000000000000000000000000608482015260a401610698565b60018301517fff0000000000000000000000000000000000000000000000000000000000000016600081900361431a576040517f08c379a000000000000000000000000000000000000000000000000000000000815260206004820152604860248201527f524c505265616465723a206c656e677468206f6620636f6e74656e74206d757360448201527f74206e6f74206861766520616e79206c656164696e67207a65726f7320286c6f60648201527f6e67206c69737429000000000000000000000000000000000000000000000000608482015260a401610698565b600184015160088302610100031c603781116143de576040517f08c379a000000000000000000000000000000000000000000000000000000000815260206004820152604660248201527f524c505265616465723a206c656e677468206f6620636f6e74656e74206d757360448201527f742062652067726561746572207468616e20353520627974657320286c6f6e6760648201527f206c697374290000000000000000000000000000000000000000000000000000608482015260a401610698565b6143e8818461543a565b89511161449d576040517f08c379a000000000000000000000000000000000000000000000000000000000815260206004820152604a60248201527f524c505265616465723a206c656e677468206f6620636f6e74656e74206d757360448201527f742062652067726561746572207468616e20746f74616c206c656e677468202860648201527f6c6f6e67206c6973742900000000000000000000000000000000000000000000608482015260a401610698565b6144a883600161543a565b97509550600194506144ba9350505050565b9193909250565b606060008267ffffffffffffffff8111156144de576144de614a9d565b6040519080825280601f01601f191660200182016040528015614508576020820181803683370190505b5090508260000361451a5790506120d7565b6000614526858761543a565b90506020820160005b8581101561454757828101518282015260200161452f565b85811115614556576000868301525b50919695505050505050565b60606113fc8260200151600084600001516144c1565b60608182601f0110156145e7576040517f08c379a000000000000000000000000000000000000000000000000000000000815260206004820152600e60248201527f736c6963655f6f766572666c6f770000000000000000000000000000000000006044820152606401610698565b828284011015614653576040517f08c379a000000000000000000000000000000000000000000000000000000000815260206004820152600e60248201527f736c6963655f6f766572666c6f770000000000000000000000000000000000006044820152606401610698565b818301845110156146c0576040517f08c379a000000000000000000000000000000000000000000000000000000000815260206004820152601160248201527f736c6963655f6f75744f66426f756e64730000000000000000000000000000006044820152606401610698565b6060821580156146df5760405191506000825260208201604052614747565b6040519150601f8416801560200281840101858101878315602002848b0101015b81831015614718578051835260209283019201614700565b5050858452601f017fffffffffffffffffffffffffffffffffffffffffffffffffffffffffffffffe016604052505b50949350505050565b6040805180820190915260008082526020820152600082511161481b576040517f08c379a000000000000000000000000000000000000000000000000000000000815260206004820152604a60248201527f524c505265616465723a206c656e677468206f6620616e20524c50206974656d60448201527f206d7573742062652067726561746572207468616e207a65726f20746f20626560648201527f206465636f6461626c6500000000000000000000000000000000000000000000608482015260a401610698565b50604080518082019091528151815260209182019181019190915290565b6060600080600061484985613a54565b919450925090506001816001811115614864576148646155a6565b146148f1576040517f08c379a000000000000000000000000000000000000000000000000000000000815260206004820152603860248201527f524c505265616465723a206465636f646564206974656d207479706520666f7260448201527f206c697374206973206e6f742061206c697374206974656d00000000000000006064820152608401610698565b84516148fd838561543a565b1461498a576040517f08c379a000000000000000000000000000000000000000000000000000000000815260206004820152603260248201527f524c505265616465723a206c697374206974656d2068617320616e20696e766160448201527f6c696420646174612072656d61696e64657200000000000000000000000000006064820152608401610698565b6040805160208082526104208201909252600091816020015b60408051808201909152600080825260208201528152602001906001900390816149a35790505090506000845b8751811015614a9157600080614a166040518060400160405280858d600001516149fa9190614f72565b8152602001858d60200151614a0f919061543a565b9052613a54565b509150915060405180604001604052808383614a32919061543a565b8152602001848c60200151614a47919061543a565b815250858581518110614a5c57614a5c6154f5565b6020908102919091010152614a7260018561543a565b9350614a7e818361543a565b614a88908461543a565b925050506149d0565b50815295945050505050565b7f4e487b7100000000000000000000000000000000000000000000000000000000600052604160045260246000fd5b604051601f82017fffffffffffffffffffffffffffffffffffffffffffffffffffffffffffffffe016810167ffffffffffffffff81118282101715614b1357614b13614a9d565b604052919050565b803573ffffffffffffffffffffffffffffffffffffffff81168114614b3f57600080fd5b919050565b600082601f830112614b5557600080fd5b813567ffffffffffffffff811115614b6f57614b6f614a9d565b614ba060207fffffffffffffffffffffffffffffffffffffffffffffffffffffffffffffffe0601f84011601614acc565b818152846020838601011115614bb557600080fd5b816020850160208301376000918101602001919091529392505050565b600060c08284031215614be457600080fd5b60405160c0810167ffffffffffffffff8282108183111715614c0857614c08614a9d565b8160405282935084358352614c1f60208601614b1b565b6020840152614c3060408601614b1b565b6040840152606085013560608401526080850135608084015260a0850135915080821115614c5d57600080fd5b50614c6a85828601614b44565b60a0830152505092915050565b600080600080600085870360e0811215614c9057600080fd5b863567ffffffffffffffff80821115614ca857600080fd5b614cb48a838b01614bd2565b97506020890135965060807fffffffffffffffffffffffffffffffffffffffffffffffffffffffffffffffc084011215614ced57600080fd5b60408901955060c0890135925080831115614d0757600080fd5b828901925089601f840112614d1b57600080fd5b8235915080821115614d2c57600080fd5b508860208260051b8401011115614d4257600080fd5b959894975092955050506020019190565b60005b83811015614d6e578181015183820152602001614d56565b83811115614d7d576000848401525b50505050565b60008151808452614d9b816020860160208601614d53565b601f017fffffffffffffffffffffffffffffffffffffffffffffffffffffffffffffffe0169290920160200192915050565b6020815260006120d76020830184614d83565b600060208284031215614df257600080fd5b5035919050565b600060208284031215614e0b57600080fd5b813567ffffffffffffffff811115614e2257600080fd5b61235d84828501614bd2565b80358015158114614b3f57600080fd5b600060208284031215614e5057600080fd5b6120d782614e2e565b600080600080600060a08688031215614e7157600080fd5b614e7a86614b1b565b945060208601359350604086013567ffffffffffffffff8082168214614e9f57600080fd5b819450614eae60608901614e2e565b93506080880135915080821115614ec457600080fd5b50614ed188828901614b44565b9150509295509295909350565b8581528460208201527fffffffffffffffff0000000000000000000000000000000000000000000000008460c01b16604082015282151560f81b604882015260008251614f32816049850160208701614d53565b919091016049019695505050505050565b7f4e487b7100000000000000000000000000000000000000000000000000000000600052601160045260246000fd5b600082821015614f8457614f84614f43565b500390565b7f4e487b7100000000000000000000000000000000000000000000000000000000600052601260045260246000fd5b600082614fc757614fc7614f89565b7fffffffffffffffffffffffffffffffffffffffffffffffffffffffffffffffff83147f80000000000000000000000000000000000000000000000000000000000000008314161561501b5761501b614f43565b500590565b6000808312837f80000000000000000000000000000000000000000000000000000000000000000183128115161561505a5761505a614f43565b837f7fffffffffffffffffffffffffffffffffffffffffffffffffffffffffffffff01831381161561508e5761508e614f43565b50500390565b60007f7fffffffffffffffffffffffffffffffffffffffffffffffffffffffffffffff6000841360008413858304851182821616156150d5576150d5614f43565b7f8000000000000000000000000000000000000000000000000000000000000000600087128682058812818416161561511057615110614f43565b6000871292508782058712848416161561512c5761512c614f43565b8785058712818416161561514257615142614f43565b505050929093029392505050565b6000808212827f7fffffffffffffffffffffffffffffffffffffffffffffffffffffffffffffff0384138115161561518a5761518a614f43565b827f80000000000000000000000000000000000000000000000000000000000000000384128116156151be576151be614f43565b50500190565b600067ffffffffffffffff8083168185168083038211156151e7576151e7614f43565b01949350505050565b60006fffffffffffffffffffffffffffffffff8083168185168183048111821515161561521f5761521f614f43565b02949350505050565b60008261523757615237614f89565b500490565b80516fffffffffffffffffffffffffffffffff81168114614b3f57600080fd5b60006060828403121561526e57600080fd5b6040516060810181811067ffffffffffffffff8211171561529157615291614a9d565b604052825181526152a46020840161523c565b60208201526152b56040840161523c565b60408201529392505050565b6000608082840312156152d357600080fd5b6040516080810181811067ffffffffffffffff821117156152f6576152f6614a9d565b8060405250823581526020830135602082015260408301356040820152606083013560608201528091505092915050565b600067ffffffffffffffff8084111561534257615342614a9d565b8360051b6020615353818301614acc565b86815291850191818101903684111561536b57600080fd5b865b8481101561539f578035868111156153855760008081fd5b61539136828b01614b44565b84525091830191830161536d565b50979650505050505050565b600084516153bd818460208901614d53565b80830190507f2e0000000000000000000000000000000000000000000000000000000000000080825285516153f9816001850160208a01614d53565b60019201918201528351615414816002840160208801614d53565b0160020195945050505050565b60006020828403121561543357600080fd5b5051919050565b6000821982111561544d5761544d614f43565b500190565b60007fffffffffffffffffffffffffffffffffffffffffffffffffffffffffffffffff820361548357615483614f43565b5060010190565b868152600073ffffffffffffffffffffffffffffffffffffffff808816602084015280871660408401525084606083015283608083015260c060a08301526154d560c0830184614d83565b98975050505050505050565b6000826154f0576154f0614f89565b500690565b7f4e487b7100000000000000000000000000000000000000000000000000000000600052603260045260246000fd5b600060ff83168061553757615537614f89565b8060ff84160691505092915050565b600060ff821660ff84168082101561556057615560614f43565b90039392505050565b6000817fffffffffffffffffffffffffffffffffffffffffffffffffffffffffffffffff04831182151516156155a1576155a1614f43565b500290565b7f4e487b7100000000000000000000000000000000000000000000000000000000600052602160045260246000fdfea164736f6c634300080f000a",
  "devdoc": {
    "version": 1,
    "kind": "dev",
    "methods": {
      "constructor": {
        "params": {
          "_finalizationPeriodSeconds": "Output finalization time in seconds.",
          "_l2Oracle": "Address of the L2OutputOracle contract."
        }
      },
      "depositTransaction(address,uint256,uint64,bool,bytes)": {
        "params": {
          "_data": "Data to trigger the recipient with.",
          "_gasLimit": "Minimum L2 gas limit (can be greater than or equal to this value).",
          "_isCreation": "Whether or not the transaction is a contract creation.",
          "_to": "Target address on L2.",
          "_value": "ETH value to send to the recipient."
        }
      },
      "finalizeWithdrawalTransaction((uint256,address,address,uint256,uint256,bytes))": {
        "params": {
          "_tx": "Withdrawal transaction to finalize."
        }
      },
      "isOutputFinalized(uint256)": {
        "params": {
          "_l2OutputIndex": "Index of the L2 output to check."
        },
        "returns": {
          "_0": "Whether or not the output is finalized."
        }
      },
      "proveWithdrawalTransaction((uint256,address,address,uint256,uint256,bytes),uint256,(bytes32,bytes32,bytes32,bytes32),bytes[])": {
        "params": {
          "_l2OutputIndex": "L2 output index to prove against.",
          "_outputRootProof": "Inclusion proof of the L2ToL1MessagePasser contract's storage root.",
          "_tx": "Withdrawal transaction to finalize.",
          "_withdrawalProof": "Inclusion proof of the withdrawal in L2ToL1MessagePasser contract."
        }
      },
      "version()": {
        "returns": {
          "_0": "Semver contract version as a string."
        }
      }
    },
    "events": {
      "TransactionDeposited(address,address,uint256,bytes)": {
        "params": {
          "from": "Address that triggered the deposit transaction.",
          "opaqueData": "ABI encoded deposit data to be parsed off-chain.",
          "to": "Address that the deposit transaction is directed to.",
          "version": "Version of this deposit transaction event."
        }
      },
      "WithdrawalFinalized(bytes32,bool)": {
        "params": {
          "success": "Whether the withdrawal transaction was successful.",
          "withdrawalHash": "Hash of the withdrawal transaction."
        }
      },
      "WithdrawalProven(bytes32,address,address)": {
        "params": {
          "withdrawalHash": "Hash of the withdrawal transaction."
        }
      }
    }
  },
  "userdoc": {
    "version": 1,
    "kind": "user",
    "methods": {
      "BASE_FEE_MAX_CHANGE_DENOMINATOR()": {
        "notice": "Denominator that determines max change on fee per block."
      },
      "ELASTICITY_MULTIPLIER()": {
        "notice": "Along with the resource limit, determines the target resource limit."
      },
      "FINALIZATION_PERIOD_SECONDS()": {
        "notice": "Minimum time (in seconds) that must elapse before a withdrawal can be finalized."
      },
      "INITIAL_BASE_FEE()": {
        "notice": "Initial base fee value."
      },
      "L2_ORACLE()": {
        "notice": "Address of the L2OutputOracle."
      },
      "MAXIMUM_BASE_FEE()": {
        "notice": "Maximum base fee value, cannot go higher than this."
      },
      "MAX_RESOURCE_LIMIT()": {
        "notice": "Maximum amount of the resource that can be used within this block."
      },
      "MINIMUM_BASE_FEE()": {
        "notice": "Minimum base fee value, cannot go lower than this."
      },
      "TARGET_RESOURCE_LIMIT()": {
        "notice": "Target amount of the resource that should be used within this block."
      },
      "depositTransaction(address,uint256,uint64,bool,bytes)": {
        "notice": "Accepts deposits of ETH and data, and emits a TransactionDeposited event for use in         deriving deposit transactions. Note that if a deposit is made by a contract, its         address will be aliased when retrieved using `tx.origin` or `msg.sender`. Consider         using the CrossDomainMessenger contracts for a simpler developer experience."
      },
      "donateETH()": {
        "notice": "Accepts ETH value without triggering a deposit to L2. This function mainly exists         for the sake of the migration between the legacy Optimism system and Bedrock."
      },
      "finalizeWithdrawalTransaction((uint256,address,address,uint256,uint256,bytes))": {
        "notice": "Finalizes a withdrawal transaction."
      },
      "finalizedWithdrawals(bytes32)": {
        "notice": "A list of withdrawal hashes which have been successfully finalized."
      },
      "initialize()": {
        "notice": "Initializer."
      },
      "isOutputFinalized(uint256)": {
        "notice": "Determine if a given output is finalized. Reverts if the call to         L2_ORACLE.getL2Output reverts. Returns a boolean otherwise."
      },
      "l2Sender()": {
        "notice": "Address of the L2 account which initiated a withdrawal in this transaction. If the         of this variable is the default L2 sender address, then we are NOT inside of a call         to finalizeWithdrawalTransaction."
      },
      "params()": {
        "notice": "EIP-1559 style gas parameters."
      },
      "proveWithdrawalTransaction((uint256,address,address,uint256,uint256,bytes),uint256,(bytes32,bytes32,bytes32,bytes32),bytes[])": {
        "notice": "Proves a withdrawal transaction."
      },
      "provenWithdrawals(bytes32)": {
        "notice": "A mapping of withdrawal hashes to `ProvenWithdrawal` data."
      },
      "version()": {
        "notice": "Returns the full semver contract version."
      }
    },
    "events": {
      "TransactionDeposited(address,address,uint256,bytes)": {
        "notice": "Emitted when a transaction is deposited from L1 to L2. The parameters of this event         are read by the rollup node and used to derive deposit transactions on L2."
      },
      "WithdrawalFinalized(bytes32,bool)": {
        "notice": "Emitted when a withdrawal transaction is finalized."
      },
      "WithdrawalProven(bytes32,address,address)": {
        "notice": "Emitted when a withdrawal transaction is proven."
      }
    },
    "notice": "The OptimismPortal is a low-level contract responsible for passing messages between L1         and L2. Messages sent directly to the OptimismPortal have no form of replayability.         Users are encouraged to use the L1CrossDomainMessenger for a higher-level interface."
  },
  "storageLayout": {
    "storage": [
      {
        "astId": 40183,
        "contract": "contracts/L1/OptimismPortal.sol:OptimismPortal",
        "label": "_initialized",
        "offset": 0,
        "slot": "0",
        "type": "t_uint8"
      },
      {
        "astId": 40186,
        "contract": "contracts/L1/OptimismPortal.sol:OptimismPortal",
        "label": "_initializing",
        "offset": 1,
        "slot": "0",
        "type": "t_bool"
      },
      {
        "astId": 1826,
        "contract": "contracts/L1/OptimismPortal.sol:OptimismPortal",
        "label": "params",
        "offset": 0,
        "slot": "1",
        "type": "t_struct(ResourceParams)1782_storage"
      },
      {
        "astId": 1831,
        "contract": "contracts/L1/OptimismPortal.sol:OptimismPortal",
        "label": "__gap",
        "offset": 0,
        "slot": "2",
        "type": "t_array(t_uint256)48_storage"
      },
      {
        "astId": 1269,
        "contract": "contracts/L1/OptimismPortal.sol:OptimismPortal",
        "label": "l2Sender",
        "offset": 0,
        "slot": "50",
        "type": "t_address"
      },
      {
        "astId": 1274,
        "contract": "contracts/L1/OptimismPortal.sol:OptimismPortal",
        "label": "finalizedWithdrawals",
        "offset": 0,
        "slot": "51",
        "type": "t_mapping(t_bytes32,t_bool)"
      },
      {
        "astId": 1280,
        "contract": "contracts/L1/OptimismPortal.sol:OptimismPortal",
        "label": "provenWithdrawals",
        "offset": 0,
        "slot": "52",
        "type": "t_mapping(t_bytes32,t_struct(ProvenWithdrawal)1247_storage)"
      }
    ],
    "types": {
      "t_address": {
        "encoding": "inplace",
        "label": "address",
        "numberOfBytes": "20"
      },
      "t_array(t_uint256)48_storage": {
        "encoding": "inplace",
        "label": "uint256[48]",
        "numberOfBytes": "1536",
        "base": "t_uint256"
      },
      "t_bool": {
        "encoding": "inplace",
        "label": "bool",
        "numberOfBytes": "1"
      },
      "t_bytes32": {
        "encoding": "inplace",
        "label": "bytes32",
        "numberOfBytes": "32"
      },
      "t_mapping(t_bytes32,t_bool)": {
        "encoding": "mapping",
        "key": "t_bytes32",
        "label": "mapping(bytes32 => bool)",
        "numberOfBytes": "32",
        "value": "t_bool"
      },
      "t_mapping(t_bytes32,t_struct(ProvenWithdrawal)1247_storage)": {
        "encoding": "mapping",
        "key": "t_bytes32",
        "label": "mapping(bytes32 => struct OptimismPortal.ProvenWithdrawal)",
        "numberOfBytes": "32",
        "value": "t_struct(ProvenWithdrawal)1247_storage"
      },
      "t_struct(ProvenWithdrawal)1247_storage": {
        "encoding": "inplace",
        "label": "struct OptimismPortal.ProvenWithdrawal",
        "numberOfBytes": "64",
        "members": [
          {
            "astId": 1242,
            "contract": "contracts/L1/OptimismPortal.sol:OptimismPortal",
            "label": "outputRoot",
            "offset": 0,
            "slot": "0",
            "type": "t_bytes32"
          },
          {
            "astId": 1244,
            "contract": "contracts/L1/OptimismPortal.sol:OptimismPortal",
            "label": "timestamp",
            "offset": 0,
            "slot": "1",
            "type": "t_uint128"
          },
          {
            "astId": 1246,
            "contract": "contracts/L1/OptimismPortal.sol:OptimismPortal",
            "label": "l2OutputIndex",
            "offset": 16,
            "slot": "1",
            "type": "t_uint128"
          }
        ]
      },
      "t_struct(ResourceParams)1782_storage": {
        "encoding": "inplace",
        "label": "struct ResourceMetering.ResourceParams",
        "numberOfBytes": "32",
        "members": [
          {
            "astId": 1777,
            "contract": "contracts/L1/OptimismPortal.sol:OptimismPortal",
            "label": "prevBaseFee",
            "offset": 0,
            "slot": "0",
            "type": "t_uint128"
          },
          {
            "astId": 1779,
            "contract": "contracts/L1/OptimismPortal.sol:OptimismPortal",
            "label": "prevBoughtGas",
            "offset": 16,
            "slot": "0",
            "type": "t_uint64"
          },
          {
            "astId": 1781,
            "contract": "contracts/L1/OptimismPortal.sol:OptimismPortal",
            "label": "prevBlockNum",
            "offset": 24,
            "slot": "0",
            "type": "t_uint64"
          }
        ]
      },
      "t_uint128": {
        "encoding": "inplace",
        "label": "uint128",
        "numberOfBytes": "16"
      },
      "t_uint256": {
        "encoding": "inplace",
        "label": "uint256",
        "numberOfBytes": "32"
      },
      "t_uint64": {
        "encoding": "inplace",
        "label": "uint64",
        "numberOfBytes": "8"
      },
      "t_uint8": {
        "encoding": "inplace",
        "label": "uint8",
        "numberOfBytes": "1"
      }
    }
  }
}